:100970000A0A3F065B4F666D7D077F6F01080C0119
:0B098000091E01140004150000000017
:10095000E4FDFCC3ED9FEC9E5015E4FBFA0BBB00DD
:0F096000010AEB64784A70F50DBD00010C80E4CC
:01096F002265
:10092300E51475F00A84740A25F0F8E6F5A0C2858B
:100933007F057E00120950D285E51475F00A8424E0
:0D0943000AF8E6F5A0C284120950D2842201
:03000B00020800E8
:10080000C0E0C0F0C083C082C0D075D000C000C0BE
:1008100001C002C003C004C005C006C007758D3CFE
:10082000758BB0E5182432F518E43517F517E43563
:1008300016F516E43515F515E47FE87E03FDFCABEF
:1008400018AA17A916A815C31209A5402F751800D4
:100850007517007516007515000514E514943C40D5
:10086000057514000509E509C3943C4005750900A8
:100870000508E508C394184003750800D007D006A2
:10088000D005D004D003D002D001D000D0D0D08287
:07089000D083D0F0D0E0326C
:10098C00758901758D3C758BB075A888D28EE4F590
:09099C00A07580FF12092380FB05
:030000000208975C
:0C089700787FE4F6D8FD7581180208DEB9
:1009A500EB9FF5F0EA9E42F0E99D42F0E89C45F0A8
:0109B500221F
:1008A30002098CE493A3F8E493A34003F68001F2D6
:1008B30008DFF48029E493A3F85407240CC8C33356
:1008C300C4540F4420C8834004F456800146F6DF25
:1008D300E4800B0102040810204080900970E47E3C
:1008E300019360BCA3FF543F30E509541FFEE4931A
:1008F300A360010ECF54C025E060A840B8E493A3E1
:10090300FAE493A3F8E493A3C8C582C8CAC583CA0B
:10091300F0A3C8C582C8CAC583CADFE9DEE780BEC3
:01098B00006B
:00000001FF
